{
  "_format": "hh-sol-artifact-1",
  "contractName": "CertificateSystem",
  "sourceName": "contracts/CertificateSystem.sol",
  "abi": [
    {
      "inputs": [],
      "stateMutability": "nonpayable",
      "type": "constructor"
    },
    {
      "anonymous": false,
      "inputs": [
        {
          "indexed": true,
          "internalType": "string",
          "name": "certId",
          "type": "string"
        },
        {
          "indexed": false,
          "internalType": "string",
          "name": "studentName",
          "type": "string"
        },
        {
          "indexed": false,
          "internalType": "string",
          "name": "course",
          "type": "string"
        },
        {
          "indexed": false,
          "internalType": "uint256",
          "name": "issueDate",
          "type": "uint256"
        }
      ],
      "name": "CertificateIssued",
      "type": "event"
    },
    {
      "inputs": [],
      "name": "admin",
      "outputs": [
        {
          "internalType": "address",
          "name": "",
          "type": "address"
        }
      ],
      "stateMutability": "view",
      "type": "function"
    },
    {
      "inputs": [
        {
          "internalType": "string",
          "name": "certId",
          "type": "string"
        },
        {
          "internalType": "string",
          "name": "studentName",
          "type": "string"
        },
        {
          "internalType": "string",
          "name": "course",
          "type": "string"
        }
      ],
      "name": "issueCertificate",
      "outputs": [],
      "stateMutability": "nonpayable",
      "type": "function"
    },
    {
      "inputs": [
        {
          "internalType": "string",
          "name": "certId",
          "type": "string"
        }
      ],
      "name": "verifyCertificate",
      "outputs": [
        {
          "internalType": "string",
          "name": "",
          "type": "string"
        },
        {
          "internalType": "string",
          "name": "",
          "type": "string"
        },
        {
          "internalType": "uint256",
          "name": "",
          "type": "uint256"
        }
      ],
      "stateMutability": "view",
      "type": "function"
    }
  ],
  "bytecode": "0x608060405234801561001057600080fd5b50336000806101000a81548173ffffffffffffffffffffffffffffffffffffffff021916908373ffffffffffffffffffffffffffffffffffffffff160217905550610ca7806100606000396000f3fe608060405234801561001057600080fd5b50600436106100415760003560e01c80638b23d87514610046578063beec1caa14610078578063f851a44014610094575b600080fd5b610060600480360381019061005b91906105ad565b6100b2565b60405161006f9392919061068e565b60405180910390f35b610092600480360381019061008d91906106d3565b610275565b005b61009c61042f565b6040516100a991906107bb565b60405180910390f35b6060806000806001856040516100c89190610812565b90815260200160405180910390206040518060600160405290816000820180546100f190610858565b80601f016020809104026020016040519081016040528092919081815260200182805461011d90610858565b801561016a5780601f1061013f5761010080835404028352916020019161016a565b820191906000526020600020905b81548152906001019060200180831161014d57829003601f168201915b5050505050815260200160018201805461018390610858565b80601f01602080910402602001604051908101604052809291908181526020018280546101af90610858565b80156101fc5780601f106101d1576101008083540402835291602001916101fc565b820191906000526020600020905b8154815290600101906020018083116101df57829003601f168201915b5050505050815260200160028201548152505090506000816040015103610258576040517f08c379a000000000000000000000000000000000000000000000000000000000815260040161024f906108d5565b60405180910390fd5b806000015181602001518260400151935093509350509193909250565b60008054906101000a900473ffffffffffffffffffffffffffffffffffffffff1673ffffffffffffffffffffffffffffffffffffffff163373ffffffffffffffffffffffffffffffffffffffff1614610303576040517f08c379a00000000000000000000000000000000000000000000000000000000081526004016102fa90610967565b60405180910390fd5b60006001846040516103159190610812565b90815260200160405180910390206002015414610367576040517f08c379a000000000000000000000000000000000000000000000000000000000815260040161035e906109d3565b60405180910390fd5b6040518060600160405280838152602001828152602001428152506001846040516103929190610812565b908152602001604051809103902060008201518160000190816103b59190610b9f565b5060208201518160010190816103cb9190610b9f565b5060408201518160020155905050826040516103e79190610812565b60405180910390207f96271eaf370790942baffd60b2c0f9dcadd6d8141dbca33de0c8fb12f0efd4848383426040516104229392919061068e565b60405180910390a2505050565b60008054906101000a900473ffffffffffffffffffffffffffffffffffffffff1681565b6000604051905090565b600080fd5b600080fd5b600080fd5b600080fd5b6000601f19601f8301169050919050565b7f4e487b7100000000000000000000000000000000000000000000000000000000600052604160045260246000fd5b6104ba82610471565b810181811067ffffffffffffffff821117156104d9576104d8610482565b5b80604052505050565b60006104ec610453565b90506104f882826104b1565b919050565b600067ffffffffffffffff82111561051857610517610482565b5b61052182610471565b9050602081019050919050565b82818337600083830152505050565b600061055061054b846104fd565b6104e2565b90508281526020810184848401111561056c5761056b61046c565b5b61057784828561052e565b509392505050565b600082601f83011261059457610593610467565b5b81356105a484826020860161053d565b91505092915050565b6000602082840312156105c3576105c261045d565b5b600082013567ffffffffffffffff8111156105e1576105e0610462565b5b6105ed8482850161057f565b91505092915050565b600081519050919050565b600082825260208201905092915050565b60005b83811015610630578082015181840152602081019050610615565b60008484015250505050565b6000610647826105f6565b6106518185610601565b9350610661818560208601610612565b61066a81610471565b840191505092915050565b6000819050919050565b61068881610675565b82525050565b600060608201905081810360008301526106a8818661063c565b905081810360208301526106bc818561063c565b90506106cb604083018461067f565b949350505050565b6000806000606084860312156106ec576106eb61045d565b5b600084013567ffffffffffffffff81111561070a57610709610462565b5b6107168682870161057f565b935050602084013567ffffffffffffffff81111561073757610736610462565b5b6107438682870161057f565b925050604084013567ffffffffffffffff81111561076457610763610462565b5b6107708682870161057f565b9150509250925092565b600073ffffffffffffffffffffffffffffffffffffffff82169050919050565b60006107a58261077a565b9050919050565b6107b58161079a565b82525050565b60006020820190506107d060008301846107ac565b92915050565b600081905092915050565b60006107ec826105f6565b6107f681856107d6565b9350610806818560208601610612565b80840191505092915050565b600061081e82846107e1565b915081905092915050565b7f4e487b7100000000000000000000000000000000000000000000000000000000600052602260045260246000fd5b6000600282049050600182168061087057607f821691505b60208210810361088357610882610829565b5b50919050565b7f4365727469666963617465206e6f7420666f756e640000000000000000000000600082015250565b60006108bf601583610601565b91506108ca82610889565b602082019050919050565b600060208201905081810360008301526108ee816108b2565b9050919050565b7f4f6e6c792061646d696e2063616e20706572666f726d2074686973206163746960008201527f6f6e000000000000000000000000000000000000000000000000000000000000602082015250565b6000610951602283610601565b915061095c826108f5565b604082019050919050565b6000602082019050818103600083015261098081610944565b9050919050565b7f436572746966696361746520494420616c726561647920657869737473000000600082015250565b60006109bd601d83610601565b91506109c882610987565b602082019050919050565b600060208201905081810360008301526109ec816109b0565b9050919050565b60008190508160005260206000209050919050565b60006020601f8301049050919050565b600082821b905092915050565b600060088302610a557fffffffffffffffffffffffffffffffffffffffffffffffffffffffffffffffff82610a18565b610a5f8683610a18565b95508019841693508086168417925050509392505050565b6000819050919050565b6000610a9c610a97610a9284610675565b610a77565b610675565b9050919050565b6000819050919050565b610ab683610a81565b610aca610ac282610aa3565b848454610a25565b825550505050565b600090565b610adf610ad2565b610aea818484610aad565b505050565b5b81811015610b0e57610b03600082610ad7565b600181019050610af0565b5050565b601f821115610b5357610b24816109f3565b610b2d84610a08565b81016020851015610b3c578190505b610b50610b4885610a08565b830182610aef565b50505b505050565b600082821c905092915050565b6000610b7660001984600802610b58565b1980831691505092915050565b6000610b8f8383610b65565b9150826002028217905092915050565b610ba8826105f6565b67ffffffffffffffff811115610bc157610bc0610482565b5b610bcb8254610858565b610bd6828285610b12565b600060209050601f831160018114610c095760008415610bf7578287015190505b610c018582610b83565b865550610c69565b601f198416610c17866109f3565b60005b82811015610c3f57848901518255600182019150602085019450602081019050610c1a565b86831015610c5c5784890151610c58601f891682610b65565b8355505b6001600288020188555050505b50505050505056fea26469706673582212203e2afb608eb09ea45e81df66845afb72d58ec9504de1bb478aaa519419e21c1064736f6c63430008150033",
  "linkReferences": {},
  "deployedLinkReferences": {}
}